:020000040800F2
:1000000000000520FD0D0008918700089387000877
:10001000958700089787000899870008000000006E
:10002000000000000000000000000000A16E0008B9
:100030009B87000800000000416F00089D870008B2
:100040004D0E00084D0E00084D0E00084D0E000824
:100050004D0E00084D0E00084D0E00084D0E000814
:100060004D0E00084D0E00084D0E00084D0E000804
:100070004D0E00084D0E00084D0E00084D0E0008F4
:100080004D0E00084D0E00084D0E00084D0E0008E4
:100090004D0E00084D0E00084D0E00084D0E0008D4
:1000A0004D0E00084D0E00084D0E00084D0E0008C4
:1000B0004D0E00084D0E00084D0E00084D0E0008B4
:1000C0004D0E00084D0E00084D0E00084D0E0008A4
:1000D0004D0E00084D0E00084D0E00084D0E000894
:1000E0004D0E00084D0E00084D0E00084D0E000884
:1000F0004D0E00084D0E00084D0E00084D0E000874
:100100004D0E00084D0E00084D0E00084D0E000863
:100110004D0E00084D0E00084D0E00084D0E000853
:100120004D0E00084D0E00084D0E00084D0E000843
:100130004D0E00084D0E00084D0E00084D0E000833
:100140004D0E00084D0E00084D0E00084D0E000823
:100150004D0E00084D0E0008B58700084D0E000832
:100160004D0E00084D0E00084D0E00084D0E000803
:100170004D0E00084D0E00084D0E00080000000056
:100180004D0E00084D0E00084D0E00084D0E0008E3
:100190004D0E00084D0E00084D0E00084D0E0008D3
:1001A000A58700084D0E00084D0E00084D0E0008F2
:1001B0004D0E00084D0E00084D0E00084D0E0008B3
:0801C0004D0E00084D0E000871
:1001D00010B5054C237833B9044B13B10448AFF381
:1001E00000800123237010BD740500200000000072
:1001F0002847010808B5034B1BB103490348AFF377
:10020000008008BD00000000780500202847010894
:100210004B1C012B98BF70472DE9F003911C9B08E4
:10022000B1F80480B1F802900A8831F802CC804419
:10023000814402448444D9F80070D8F800601568FD
:10024000DCF80040C9F80060C8F80070CCF8005035
:100250001460D9F80470D8F804605568DCF80440DC
:10026000C9F80460C8F80470CCF804505460083130
:10027000013BD5D1BDE8F00370474B1C012B98BF63
:1002800070472DE9F003911C9B08B1F80480B1F888
:1002900002900A8831F802CC00EB580800EB5909AB
:1002A00000EB520200EB5C0CD9F80070D8F800604B
:1002B0001568DCF80040C9F80060C8F80070CCF898
:1002C000005014600831013BDFD1BDE8F0037047F6
:1002D00081F0004102E000BF83F0004330B54FEAF7
:1002E00041044FEA430594EA050F08BF90EA020F64
:1002F0001FBF54EA000C55EA020C7FEA645C7FEAF7
:10030000655C00F0E2804FEA5454D4EB5555B8BF19
:100310006D420CDD2C4480EA020281EA030382EA8A
:10032000000083EA010180EA020281EA0303362D1C
:1003300088BF30BD11F0004F4FEA01314FF4801CEF
:100340004CEA113102D0404261EB410113F0004F01
:100350004FEA03334CEA133302D0524263EB4303B8
:1003600094EA050F00F0A780A4F10104D5F1200E56
:100370000DDB02FA0EFC22FA05F2801841F10001B1
:1003800003FA0EF2801843FA05F359410EE0A5F185
:1003900020050EF1200E012A03FA0EFC28BF4CF0B6
:1003A000020C43FA05F3C01851EBE37101F000456C
:1003B00007D54FF0000EDCF1000C7EEB00006EEB79
:1003C0000101B1F5801F1BD3B1F5001F0CD3490803
:1003D0005FEA30004FEA3C0C04F101044FEA44525A
:1003E00012F5800F80F09A80BCF1004F08BF5FEAE1
:1003F000500C50F1000041EB045141EA050130BDC1
:100400005FEA4C0C404141EB0101013C28BFB1F5D2
:10041000801FE9D291F0000F04BF01460020B1FA1D
:1004200081F308BF2033A3F10B03B3F120020CDAF0
:100430000C3208DD02F1140CC2F10C0201FA0CF0CE
:1004400021FA02F10CE002F11402D8BFC2F1200C33
:1004500001FA02F120FA0CFCDCBF41EA0C019040E9
:10046000E41AA2BF01EB0451294330BD6FEA040432
:100470001F3C1CDA0C340EDC04F11404C4F120021D
:1004800020FA04F001FA02F340EA030021FA04F32F
:1004900045EA030130BDC4F10C04C4F1200220FA86
:1004A00002F001FA04F340EA0300294630BD21FAC4
:1004B00004F0294630BD94F0000F83F4801306BF8A
:1004C00081F480110134013D4EE77FEA645C18BF7E
:1004D0007FEA655C29D094EA050F08BF90EA020F15
:1004E00005D054EA000C04BF1946104630BD91EA0D
:1004F000030F1EBF0021002030BD5FEA545C05D110
:100500004000494128BF41F0004130BD14F580044E
:100510003CBF01F5801130BD01F0004545F0FE41C2
:1005200041F470014FF0000030BD7FEA645C1ABFF7
:10053000194610467FEA655C1CBF0B46024650EA2E
:10054000013406BF52EA033591EA030F41F400215A
:1005500030BD00BF90F0000F04BF0021704730B5E0
:100560004FF4806404F132044FF000054FF00001B5
:1005700050E700BF90F0000F04BF0021704730B576
:100580004FF4806404F1320410F0004548BF40424B
:100590004FF000013EE700BF42004FEAE2014FEAA0
:1005A00031014FEA02701FBF12F07F4393F07F4F7B
:1005B00081F06051704732F07F4208BF704793F07E
:1005C0007F4F04BF41F40021704730B54FF4607491
:1005D00001F0004521F000411CE700BF50EA010294
:1005E00008BF704730B54FF000050AE050EA01023D
:1005F00008BF704730B511F0004502D5404261EBAD
:1006000041014FF4806404F132045FEA915C3FF4ED
:10061000D8AE4FF003025FEADC0C18BF03325FEA8A
:10062000DC0C18BF033202EBDC02C2F1200300FA3B
:1006300003FC20FA02F001FA03FE40EA0E0021FA60
:1006400002F11444BDE600BF4FEA4102B2F1E043BB
:1006500024BFB3F5001CDCF1FE5C0DD901F0004CA9
:100660004FEAC0024CEA5070B2F1004F40EB8300F9
:1006700008BF20F00100704711F0804F21D113F125
:100680003872BCBF01F00040704741F480114FEA5E
:100690005252C2F11802C2F1200C10FA0CF320FAE7
:1006A00002F018BF40F001004FEAC1234FEAD32304
:1006B00003FA0CFC40EA0C0023FA02F34FEA43036E
:1006C000CCE77FEA625307D150EA01331EBF4FF0F7
:1006D000FE4040F44000704701F0004040F0FE4012
:1006E00040F40000704700BF53B94AB9002908BF61
:1006F00000281CBF4FF0FF314FF0FF3000F074B9FD
:10070000ADF1080C6DE904CE00F006F8DDF804E068
:10071000DDE9022304B070472DE9F047089D044647
:100720008E46002B4DD18A42944669D9B2FA82F2A4
:1007300052B101FA02F3C2F1200120FA01F10CFAE0
:1007400002FC41EA030E94404FEA1C48210CBEFB18
:10075000F8F61FFA8CF708FB16E341EA034306FBA1
:1007600007F199420AD91CEB030306F1FF3080F030
:100770001F81994240F21C81023E63445B1AA4B27D
:10078000B3FBF8F008FB103344EA034400FB07F71F
:10079000A7420AD91CEB040400F1FF3380F00A8160
:1007A000A74240F207816444023840EA0640E41B55
:1007B00000261DB1D4400023C5E900433146BDE801
:1007C000F0878B4209D9002D00F0EF800026C5E9A3
:1007D000000130463146BDE8F087B3FA83F6002EBB
:1007E0004AD18B4202D3824200F2F980841A61EB33
:1007F000030301209E46002DE0D0C5E9004EDDE751
:1008000002B9FFDEB2FA82F2002A40F09280A1EB38
:100810000C014FEA1C471FFA8CFE0126200CB1FB8D
:10082000F7F307FB131140EA01410EFB03F0884286
:1008300008D91CEB010103F1FF3802D2884200F213
:10084000CB804346091AA4B2B1FBF7F007FB1011A5
:1008500044EA01440EFB00FEA64508D91CEB040443
:1008600000F1FF3102D2A64500F2BB800846A4EB9E
:100870000E0440EA03409CE7C6F12007B34022FA89
:1008800007FC4CEA030C20FA07F401FA06F31C43B8
:10089000F9404FEA1C4900FA06F3B1FBF9F8200CC5
:1008A0001FFA8CFE09FB181140EA014108FB0EF00B
:1008B000884202FA06F20BD91CEB010108F1FF3A5B
:1008C00080F08880884240F28580A8F10208614467
:1008D000091AA4B2B1FBF9F009FB101144EA014175
:1008E00000FB0EFE8E4508D91CEB010100F1FF3420
:1008F0006CD28E456AD90238614440EA0840A0FBB8
:100900000294A1EB0E01A142C846A64656D353D08D
:100910005DB1B3EB080261EB0E0101FA07F722FAB1
:1009200006F3F1401F43C5E9007100263146BDE8DA
:10093000F087C2F12003D8400CFA02FC21FA03F33D
:10094000914001434FEA1C471FFA8CFEB3FBF7F0BE
:1009500007FB10360B0C43EA064300FB0EF69E42E3
:1009600004FA02F408D91CEB030300F1FF382FD27C
:100970009E422DD9023863449B1B89B2B3FBF7F624
:1009800007FB163341EA034106FB0EF38B4208D9FD
:100990001CEB010106F1FF3816D28B4214D9023E3E
:1009A0006144C91A46EA004638E72E46284605E75C
:1009B0000646E3E61846F8E64B45A9D2B9EB02082D
:1009C00064EB0C0E0138A3E74646EAE7204694E7BD
:1009D0004046D1E7D0467BE7023B614432E73046F0
:1009E00009E76444023842E7704700BF844641EAA1
:1009F000000313F003036DD1403A41D351F8043B97
:100A000040F8043B51F8043B40F8043B51F8043BE8
:100A100040F8043B51F8043B40F8043B51F8043BD8
:100A200040F8043B51F8043B40F8043B51F8043BC8
:100A300040F8043B51F8043B40F8043B51F8043BB8
:100A400040F8043B51F8043B40F8043B51F8043BA8
:100A500040F8043B51F8043B40F8043B51F8043B98
:100A600040F8043B51F8043B40F8043B51F8043B88
:100A700040F8043B51F8043B40F8043B403ABDD2F7
:100A8000303211D351F8043B40F8043B51F8043B99
:100A900040F8043B51F8043B40F8043B51F8043B58
:100AA00040F8043B103AEDD20C3205D351F8043B28
:100AB00040F8043B043AF9D2043208D0D2071CBFF4
:100AC00011F8013B00F8013B01D30B88038060461D
:100AD000704700BF082A13D38B078DD010F0030393
:100AE0008AD0C3F10403D21ADB071CBF11F8013B03
:100AF00000F8013B80D331F8023B20F8023B7BE752
:100B0000043AD9D3013A11F8013B00F8013BF9D27C
:100B10000B7803704B7843708B7883706046704716
:100B20004FF0FF3C06E000BF4FF0010C02E000BFB9
:100B30004FF0010C4DF804CD4FEA410C7FEA6C5C9C
:100B40004FEA430C18BF7FEA6C5C1BD001B050EA3F
:100B5000410C0CBF52EA430C91EA030F02BF90EA2A
:100B6000020F0020704710F1000F91EA030F58BFE9
:100B7000994208BF90422CBFD8176FEAE37040F04B
:100B8000010070474FEA410C7FEA6C5C02D150EAE9
:100B9000013C07D14FEA430C7FEA6C5CD6D152EAA4
:100BA000033CD3D05DF8040B704700BF8446104669
:100BB00062468C461946634600E000BF01B5FFF768
:100BC000B7FF002848BF10F1000F01BD4DF808ED38
:100BD000FFF7F4FF0CBF012000205DF808FB00BF09
:100BE0004DF808EDFFF7EAFF34BF012000205DF863
:100BF00008FB00BF4DF808EDFFF7E0FF94BF0120B0
:100C000000205DF808FB00BF4DF808EDFFF7CEFFB0
:100C100094BF012000205DF808FB00BF4DF808EDEF
:100C2000FFF7C4FF34BF012000205DF808FB00BFC0
:100C300070B50D4E0D4D761BB61006D0002455F83C
:100C4000043B01349847A642F9D1094E094D761B61
:100C500013F06AFDB61006D0002455F8043B0134A9
:100C60009847A642F9D170BDC4850208C485020820
:100C7000CC850208C4850208830730B548D0541ECD
:100C8000002A3FD0CAB2034601E0013C3AD303F840
:100C9000012B9D07F9D1032C2DD9CDB245EA0525AD
:100CA0000F2C45EA054536D9A4F1100222F00F0CAD
:100CB00003F1200EE6444FEA121C03F1100242E950
:100CC000045542E9025510327245F8D10CF1010287
:100CD00014F00C0F03EB021204F00F0C13D0ACF164
:100CE000040323F003030433134442F8045B9342E8
:100CF000FBD10CF003042CB1CAB21C4403F8012B45
:100D00009C42FBD130BD64461346002CF4D1F9E778
:100D100003461446BFE71A46A446E0E7024B13B168
:100D2000024800F005B87047000000003D0D0008C3
:100D3000002301461A46184600F01AB838B5084B89
:100D4000084D5B1B9C1007D0043B1D44013C55F82B
:100D500004399847002CF9D1BDE8384013F0EABCBB
:100D6000D0850208CC850208704700BF704700BFDD
:100D70002DE9F047DFF880A00646DAF80000984633
:100D80000F469146FFF7F0FF1A4B1B68D3F8484116
:100D900024B365681F2D26DC5EB96B1C0235DAF8BA
:100DA0000000636044F82570FFF7E0FF0020BDE815
:100DB000F08704EB85010123C1F88890D4F88821DD
:100DC000AB401A43022EC4F88821C1F80881E4D14F
:100DD000D4F88C211343C4F88C31DEE703F5A674F4
:100DE000C3F84841D5E7DAF80000FFF7BFFF4FF03E
:100DF000FF30DCE74047010828040020DFF834D04A
:100E000007F0E0FC0C480D490D4A002302E0D458DD
:100E1000C4500433C4188C42F9D30A4A0A4C002344
:100E200001E013600432A242FBD3FFF701FF07F099
:100E300035FB7047000005200000002074050020ED
:100E4000D085020874050020ECDA0320FEE70000DC
:100E5000002800F0018270B582B00446036813F0E8
:100E6000010F29D0964B9B6803F00C03042B1AD07A
:100E7000934B9B6803F00C03082B0FD06368B3F50A
:100E8000803F40D0002B55D18D4B1A6822F4803220
:100E90001A601A6822F480221A6039E0884B5B6875
:100EA00013F4800FEAD0864B1B6813F4003F03D085
:100EB0006368002B00F0D281236813F0020F76D014
:100EC0007F4B9B6813F00C0F60D07D4B9B6803F049
:100ED0000C03082B55D0E368002B00F08B80784A78
:100EE000136843F00103136001F01EFB0546744BC9
:100EF0001B6813F0020F74D101F016FB401B02288F
:100F0000F5D90320AFE16E4A136843F480331360D0
:100F1000636833B301F008FB0546694B1B6813F4A3
:100F2000003FC9D101F000FB401BB0F5FA7FF4D9B6
:100F3000032098E1B3F5A02F09D0614B1A6822F481
:100F400080321A601A6822F480221A60E0E75C4B53
:100F50001A6842F480221A601A6842F480321A60D9
:100F6000D6E701F0E1FA0546554B1B6813F4003F44
:100F7000A2D001F0D9FA401BB0F5FA7FF4D90320D2
:100F800071E14F4B5B6813F4800FA4D14C4B1B688D
:100F900013F0020F03D0E368012B40F06181484A4F
:100FA000136823F0F803216943EAC103136023683F
:100FB00013F0080F46D0636983B3414A536F43F07F
:100FC0000103536701F0B0FA05463D4B5B6F13F028
:100FD000020F37D101F0A8FA401B0228F5D90320EF
:100FE00041E1374A136823F0F803216943EAC1035A
:100FF0001360DCE7324A136823F00103136001F049
:1010000093FA05462E4B1B6813F0020FCFD001F068
:101010008BFA401B0228F5D9032024E1284A536F9C
:1010200023F00103536701F07FFA0546244B5B6F01
:1010300013F0020F06D001F077FA401B0228F5D911
:10104000032010E1236813F0040F7DD01C4B1B6CB0
:1010500013F0805F1ED11A4B1A6C42F080521A6452
:101060001B6C03F080530193019B0125154B1B68FA
:1010700013F4807F10D0A368012B25D0002B3BD127
:101080000F4B1A6F22F001021A671A6F22F0040246
:101090001A671EE00025E9E70A4A136843F48073E3
:1010A000136001F041FA0646064B1B6813F4807F7B
:1010B000E1D101F039FA801B6428F5D90320D2E090
:1010C00000380240007000406E4A136F43F0010385
:1010D0001367A36833B301F027FA0646694B1B6F09
:1010E00013F0020F2FD101F01FFA801B41F2883359
:1010F0009842F3D90320B6E0052B09D0614B1A6F53
:1011000022F001021A671A6F22F004021A67E0E760
:101110005C4B1A6F42F004021A671A6F42F0010228
:101120001A67D6E701F000FA0646564B1B6F13F01C
:10113000020F08D001F0F8F9801B41F28833984281
:10114000F3D903208FE0FDB9A369002B00F08A805A
:101150004C4A926802F00C02082A58D0022B19D08F
:10116000484A136823F08073136001F0DDF90446E8
:10117000444B1B6813F0007F47D001F0D5F9001BEA
:101180000228F5D903206EE03E4A136C23F0805309
:101190001364D9E73B4A136823F08073136001F0AE
:1011A000C3F90546374B1B6813F0007F06D001F0EA
:1011B000BBF9401B0228F5D9032054E0E369226AF9
:1011C0001343626A43EA8213A26A5208013A43EA6D
:1011D0000243E26A43EA026343F00053294A536040
:1011E000136843F08073136001F09EF90446254BA9
:1011F0001B6813F0007F06D101F096F9001B02284E
:10120000F5D903202FE000202DE000202BE01D4A1F
:101210005268012B29D002F48003E1698B4226D168
:1012200002F03F03216A8B4223D1616A47F6C07303
:101230001340B3EB811F1ED102F44031A36A5B0857
:10124000013BB1EB034F18D102F07062E36AB2EBDD
:10125000036F14D1002006E001207047012002E056
:10126000012000E0002002B070BD0120FBE701205A
:10127000F9E70120F7E70120F5E70120F3E7012076
:10128000F1E700BF0038024008B5254B9B6803F02A
:101290000C03042B3FD0082B3FD1214B5A6802F09E
:1012A0003F025B6813F4800F12D01D4B5968C1F3E5
:1012B00088111C480023A1FB0001FFF715FA184B09
:1012C0005B68C3F3014301335B00B0FBF3F025E03F
:1012D000134B5968C1F3881C4FEA4C11B1EB0C0059
:1012E0006EEB0E0E4FEA8E1343EA90638101091AEA
:1012F00063EB0E03DB0043EA5173C90011EB0C0CE6
:1013000043F10003990200234FEA8C2041EA9C51EB
:10131000FFF7EAF9D3E7034800E0034808BD00BF40
:101320000038024040787D010024F400002800F0DD
:10133000A08070B50D460446524B1B6803F00F03A6
:101340008B420BD24F4A136823F00F030B431360F9
:10135000136803F00F038B4240F08D80236813F075
:10136000020F17D013F0040F04D0474A936843F4D8
:10137000E0539360236813F0080F04D0424A936847
:1013800043F460439360404A936823F0F003A168FC
:101390000B439360236813F0010F31D06368012B76
:1013A00020D0022B25D0384A126812F0020F64D0E8
:1013B00035498A6822F0030213438B6001F0B4F8C8
:1013C0000646314B9B6803F00C036268B3EB820F57
:1013D00016D001F0A9F8801B41F288339842F0D969
:1013E000032045E0284A126812F4003FE0D10120B2
:1013F0003EE0254A126812F0007FD9D1012037E083
:10140000204B1B6803F00F03AB420AD91D4A136837
:1014100023F00F032B431360136803F00F03AB4259
:101420002DD1236813F0040F06D0174A936823F4D4
:10143000E053E1680B439360236813F0080F07D073
:10144000114A936823F46043216943EAC10393601E
:10145000FFF71AFF0C4B9B68C3F303130B4AD35CD3
:10146000D8400B4B18600B4B186801F01FF8002098
:1014700070BD012070470120FAE70120F8E7012044
:10148000F6E700BF003C02400038024088470108F0
:101490009404002030040020F0B583B004460668B0
:1014A00016F001060DD0A74B9A6822F400029A604C
:1014B0009A68416B0A439A60436B002B00F03981B4
:1014C0000026256815F4002511D09E4AD2F88C30EC
:1014D00023F44013E16B0B43C2F88C30E36BB3F59C
:1014E000801F00F02881002B00F027810025236851
:1014F00013F4801F0FD0934AD2F88C3023F44003AA
:10150000216C0B43C2F88C30236CB3F5800F00F0D4
:10151000168103B90125236813F0807F00D00126CE
:1015200013F0200F40F01081236813F0100F0CD03F
:10153000844BD3F88C2022F08072C3F88C20D3F82F
:101540008C20A16B0A43C3F88C20236813F4804FCE
:1015500008D07C4AD2F8903023F44033616E0B43BC
:10156000C2F89030236813F4004F08D0754AD2F8BF
:10157000903023F44023A16E0B43C2F890302368CF
:1015800013F4803F08D06F4AD2F8903023F4401310
:10159000E16E0B43C2F89030236813F4003F08D08B
:1015A000684AD2F8903023F44003216F0B43C2F80D
:1015B0009030236813F0400F08D0624AD2F8903080
:1015C00023F00303616C0B43C2F89030236813F0DF
:1015D000800F08D05B4AD2F8903023F00C03A16C46
:1015E0000B43C2F89030236813F4807F08D0554A2B
:1015F000D2F8903023F03003E16C0B43C2F8903006
:10160000236813F4007F08D04E4AD2F8903023F0BC
:10161000C003216D0B43C2F89030236813F4806F30
:1016200008D0484AD2F8903023F44073616D0B43E0
:10163000C2F89030236813F4006F08D0414AD2F802
:10164000903023F44063A16D0B43C2F890302368BF
:1016500013F4805F08D03B4AD2F8903023F4405313
:10166000E16D0B43C2F89030236813F4005F08D09B
:10167000344AD2F8903023F44043216E0B43C2F831
:101680009030236813F4800F08D02E4AD2F890309F
:1016900023F08063A16F0B43C2F89030236813F4EA
:1016A000001F0DD0274AD2F8903023F00063E16F7D
:1016B0000B43C2F89030E36FB3F1006F00F0AA80E3
:1016C000236813F0080F00D0012513F4802F08D0F1
:1016D0001C4AD2F8903023F04073616F0B43C2F87C
:1016E0009030236813F4000F09D0164AD2F89030D6
:1016F00023F08053D4F880100B43C2F8903026B901
:10170000236813F0007F00F005810E4A136823F070
:101710008063136000F008FF06460A4B1B6813F055
:10172000006F79D000F000FF801B6428F5D90320FA
:10173000F3E00126C5E60126D5E60125D7E6012618
:10174000E7E600BF003802407F4B1A6C42F080523F
:101750001A641B6C03F080530193019B7B4A13684E
:1017600043F48073136000F0DFFE0746774B1B687D
:1017700013F4807F06D100F0D7FEC01B6428F5D992
:101780000320CAE0704B1B6F13F4407315D0226B1B
:1017900002F440729A4210D06B4B1A6F22F44072DE
:1017A000196F41F480311967196F21F4803119677D
:1017B0001A671B6F13F0010F12D1236B03F44072F1
:1017C000B2F5407F1DD0604A936823F4F81393600C
:1017D0005D490B6F226BC2F30B0213430B67A3E649
:1017E00000F0A2FE0746584B1B6F13F0020FE4D126
:1017F00000F09AFEC01B41F288339842F3D90320CF
:101800008BE05148826822F4F812514919400A438A
:101810008260DDE7012553E7236813F0010F13D041
:10182000636B8BB9484AD2F88430D2F88410606870
:1018300003F4403343EA801301F070610B43A16865
:1018400043EA0173C2F88430236813F4002F03D0F5
:10185000E26BB2F5801F06D013F4801F1ED0236CFC
:10186000B3F5800F1AD1384AD2F88430D2F88410F8
:10187000606803F4403343EA8013E06843EA00639E
:1018800001F0E0410B43C2F88430D2F88C3023F0F1
:101890001F03616A01390B43C2F88C30236813F0CF
:1018A000807F11D0284AD2F88400D2F8841066686C
:1018B00023691B0443EA861300F07060034301F0C0
:1018C000E0410B43C2F88430236813F0007F0DD051
:1018D000626823691B0443EA8213E26843EA0263F5
:1018E000A26843EA0273184AC2F88430164A1368A1
:1018F00043F08063136000F017FE0646124B1B682E
:1019000013F0006F06D100F00FFE801B6428F5D99C
:10191000032002E0012D02D0002003B0F0BD0A4AEE
:10192000136823F08053136000F0FEFD0546064B5C
:101930001B6813F0005F0DD000F0F6FD401B64281B
:10194000F5D90320E9E700BF0038024000700040ED
:10195000FFFCFF0F236813F4002F01D0E26B22B1CC
:1019600013F4801F1DD0236CDBB9354AD2F88830C0
:10197000D2F88810606903F4403343EA8013A06909
:1019800043EA006301F0E0410B43C2F88830D2F82B
:101990008C3023F4F853A16A013943EA0123C2F8D9
:1019A0008C30236813F4001F03D0E36FB3F1006F92
:1019B00031D0236813F0080F19D0214AD2F88810CB
:1019C000D2F88830606903F4403343EA801301F0B1
:1019D00070610B43E16943EA0173C2F88830D2F8C1
:1019E0008C3023F44033E16A0B43C2F88C30144A44
:1019F000136843F08053136000F096FD0446104BCB
:101A00001B6813F0005F19D100F08EFD001B6428E5
:101A1000F5D9032081E70A4AD2F88800D2F8881065
:101A20006569236A1B0443EA851300F07060034371
:101A300001F0E0410B43C2F88830BAE700206CE7C0
:101A400000380240564B0360564BD3F88420C2F353
:101A500088124260D3F88420C2F301420261D3F8B5
:101A60008420C2F30362C260D3F88420C2F30272FE
:101A70008260D3F88820C2F388124261D3F88820AC
:101A8000C2F301420262D3F88820C2F3036282618A
:101A9000D3F88820C2F30272C261D3F88C2002F01E
:101AA0001F024262D3F88C20C2F304228262D3F870
:101AB0008C20C2F30142C262D3F88C2002F440129F
:101AC000C263D3F88C2002F4400202649A6802F4E4
:101AD00000024263D3F8902002F440324266D3F809
:101AE000902002F440228266D3F8902002F4401243
:101AF000C266D3F8902002F440020267D3F8902027
:101B000002F003024264D3F8902002F00C028264D7
:101B1000D3F8902002F03002C264D3F8902002F093
:101B2000C0020265D3F8902002F440724265D3F8F7
:101B3000902002F440628265D3F8902002F4405273
:101B4000C265D3F8902002F440420266D3F8902098
:101B500002F040724267D3F8902002F08062826700
:101B6000D3F8902002F00062C267D3F8902002F010
:101B70008052C0F88020996801F4F8111A6F02F4BD
:101B800040720A430263D3F88C3013F0807F02D195
:101B90000023836370474FF080738363704700BFF7
:101BA000F1FFFF00003802400246B0F5002F04D0DC
:101BB0000020B2F5801F62D07047614BD3F88C30A3
:101BC00003F44013B3F5801F2ED0B3F5001F54D09B
:101BD0000BB10020EDE75A4B5B6813F4800F1BD16B
:101BE000574B5B6803F03F0C564BB3FBFCFC54496E
:101BF000D1F88800C0F30360D1F88830C3F38813AC
:101C00000CFB03F3B3FBF0F3D1F88C00C0F304201A
:101C10000130B3FBF0F0CCE7494B5B6803F03F0CBD
:101C2000494BB3FBFCFCE2E7454B5B6813F4800FC8
:101C30001BD1434B5B6803F03F0C424BB3FBFCFCF6
:101C40003F49D1F88400C0F30360D1F88430C3F376
:101C500088130CFB03F3B3FBF0F3D1F88C0000F016
:101C60001F000130B3FBF0F0A3E7354B5B6803F0D6
:101C70003F0C354BB3FBFCFCE2E7344899E7304BB3
:101C8000D3F88C3003F44003B3F5800F2DD0B3F5B7
:101C9000000F53D0002B8FD1294B5B6813F4800FBA
:101CA0001BD1274B596801F03F012648B0FBF1F1E9
:101CB000234BD3F88820C2F30362D3F88800C0F323
:101CC000881001FB00F0B0FBF2F0D3F88C30C3F3C6
:101CD00004230133B0FBF3F07047194B596801F04E
:101CE0003F011948B0FBF1F1E2E7154B5B6813F4D3
:101CF000800F1BD1124B596801F03F011148B0FB16
:101D0000F1F10F4BD3F88420C2F30362D3F88400BF
:101D1000C0F3881001FB00F0B0FBF2F0D3F88C3078
:101D200003F01F030133B0FBF3F07047044B596815
:101D300001F03F010448B0FBF1F1E2E703483BE763
:101D4000003802400024F40040787D010080BB0090
:101D500000230F2B00F2EF8070B582B061E0856840
:101D60005E000324B44025EA0405CC68B4402C434B
:101D70008460456825EA02054C68C4F300129A4065
:101D80002A4342605BE0DC08083450F8246003F02A
:101D9000070295000F22AA4026EA020E0A69AA400D
:101DA00042EA0E0240F824205DE0092200E0002211
:101DB00002FA0EF22A4302345F4D45F824205F4AAE
:101DC00094686FEA0C0224EA0C054E6816F4801F32
:101DD00001D04CEA0405594CA560E46802EA040508
:101DE0004E6816F4001F01D04CEA0405534CE56020
:101DF000646802EA04054E6816F4003F01D04CEA1C
:101E000004054E4C6560246822404D6815F4803FFF
:101E100001D04CEA0402494C226001330F2B00F23E
:101E2000888001229A400C6804EA020C32EA040419
:101E3000F3D14C6804F00304013C012C8FD94A68AB
:101E400002F00302032A09D0C4685D000322AA40FD
:101E500024EA02048A68AA402243C2604A6802F067
:101E60000302022A8FD004684FEA430E032202FACB
:101E70000EF224EA02044A6802F0030202FA0EF2A9
:101E8000224302604A6812F4403FC6D02C4A546C88
:101E900044F480445464526C02F480420192019AEA
:101EA0009C08A51C244A52F8255003F003024FEA6F
:101EB000820E0F2202FA0EF225EA0205214A904212
:101EC0003FF475AF02F58062904222D002F5806245
:101ED000904220D002F5806290421ED002F58062CE
:101EE00090421CD002F5806290421AD002F58062C6
:101EF000904218D002F58062904216D002F58062BE
:101F0000904214D002F5806290423FF44EAF0A2214
:101F10004EE701224CE702224AE7032248E7042267
:101F200046E7052244E7062242E7072240E7082267
:101F30003EE702B070BD704700380140003C0140F0
:101F400000380240000002400AB181617047090474
:101F50008161704730B405682C6824F480242C60BB
:101F6000046863608368402B05D003689960036848
:101F7000DA6030BC704703689A600368D960F8E79C
:101F800010B40168CAB2103A0A4BA3FB02431B0902
:101F9000094CE35CC3655F2A07D9084B0B40043347
:101FA0008365806D5DF8044B7047044B0B4083657F
:101FB000F7E700BFABAAAAAA4447010800FCFFFF4D
:101FC000836A826992B9012B0AD0022B02D00BB12D
:101FD00000207047C36A13F0807F28D1002070472B
:101FE000C36AB3F1C07F24D000207047B2F5005F10
:101FF00009D0022B25D9032B25D1C36A13F0807F8A
:1020000023D100207047032B03D8DFE803F014042A
:10201000140A00207047C36A13F0807F0DD100209E
:102020007047C36AB3F1C07F09D000207047012018
:102030007047012070470120704701207047012040
:102040007047012070470020704701207047000052
:1020500070B5044600F068FA002C5CD005460223F7
:1020600084F83530002384F834302268136823F074
:102070000103136023681A6812F0010F0AD000F000
:1020800053FA431B052BF5D920236365032084F8FD
:10209000350070BD1A68214810406168A2680A4383
:1020A000E1680A4321690A4361690A43A1690A4355
:1020B000E1690A43216A0A430243616A04291ED086
:1020C0001A602668756925F00705636A1D43042BAD
:1020D00007D1A36A1D43E36A1BB12046FFF770FFD7
:1020E00090B975612046FFF74BFFE26D3F239340A7
:1020F000836000206065012384F83530C9E7E16A18
:10210000206B01430A43DBE740236365002384F827
:1021100035300120BDE70120BBE700BF3F8010F054
:1021200000282DD038B5054690F83500C0B20228F9
:1021300025D02A68136823F0010313602B6800245C
:102140001C602B685C602B689C602B68DC602B68D3
:102150001C612B6821225A612846FFF711FFEA6DA6
:102160003F2393408360EC632C646C64AC64EC6448
:102170002C656C6585F8354085F83440204638BDBF
:102180000120704738B50446856D90F83400012869
:1021900030D0012084F8340094F83500C0B2012812
:1021A00004D0002384F83430022038BD022084F8A3
:1021B0003500002060652046FFF7CCFEE26D3F232E
:1021C0009340AB602268136843F0160313602268E3
:1021D000536943F080035361236C23B12268136871
:1021E00043F0080313602268136843F0010313608F
:1021F0000020DAE70220D8E7F0B583B004460023D8
:102200000193724B1D68724BA3FB0535AD0A876DB8
:102210003E68C26D08239340334210D003681A68A9
:1022200012F0040F0BD01A6822F004021A60C26D7B
:1022300008239340BB60436D43F001034365E26DA7
:1022400001239340334209D02268526912F0800F73
:1022500004D0BB60636D43F002036365E26D042349
:102260009340334209D02268126812F0020F04D062
:10227000BB60636D43F004036365E26D102393401C
:10228000334224D02268126812F0080F1FD0BB60BE
:1022900023681A6812F4802F0DD01B6813F4002FE6
:1022A00004D1236C9BB12046984710E0A36C73B116
:1022B000204698470BE01A6812F4807F03D11A6811
:1022C00022F008021A60236C0BB120469847E26D99
:1022D00020239340334255D02268126812F0100F29
:1022E00050D0BB6094F83530DBB2052B0ED023689C
:1022F0001A6812F4802F33D01B6813F4002F2AD1F0
:10230000636C002B3ED0204698473BE02268136860
:1023100023F0160313602268536923F0800353618E
:10232000236CA3B12268136823F008031360E26DE5
:102330003F239340BB60012384F83530002384F8A9
:102340003430236D002B3FD0204698473CE0A36CEF
:10235000002BE7D1EBE7E36BA3B12046984711E0F0
:102360001A6812F4807F09D11A6822F010021A60EC
:10237000012384F83530002384F83430E36B0BB14B
:1023800020469847636DFBB1636D13F0010F17D0C2
:10239000052384F835302268136823F001031360A5
:1023A000019B01330193AB4204D823681B6813F0EF
:1023B000010FF5D1012384F83530002384F834303F
:1023C000E36C0BB12046984703B0F0BD94040020A5
:1023D000B5814E1B0649CB6823F4E0631B041B0C3C
:1023E000000200F4E0600343024A1A43CA607047E7
:1023F00000ED00E00000FA0500B5174BDB68C3F301
:102400000223C3F1070CBCF1040F28BF4FF0040CEA
:1024100003F1040EBEF1060F14D9033B4FF0FF3E4B
:102420000EFA0CFC21EA0C0199400EFA03F322EAA1
:1024300003031943002807DB0901C9B2074B1954EC
:102440005DF804FB0023E9E700F00F000901C9B2C1
:10245000034B1954F4E700BF00ED00E000E400E096
:1024600014ED00E0002807DB00F01F024009012303
:102470009340024A42F82030704700BF00E100E07C
:102480000138B0F1807F0BD24FF0E0235861054A4C
:10249000F02182F823100020986107221A6170470A
:1024A0000120704700ED00E07047000010B50446C1
:1024B0000E4B18784FF47A73B3FBF0F30C4A1068A4
:1024C000B0FBF3F0FFF7DCFF68B90F2C01D9012056
:1024D0000AE0002221464FF0FF30FFF78DFF054B49
:1024E0001C60002000E0012010BD00BF2C04002073
:1024F000940400203004002008B50320FFF76AFF91
:102500000F20FFF7D3FFFFF7CFFF002008BD00002B
:10251000034A1168034B1B780B441360704700BFDC
:10252000940500202C040020014B1868704700BF60
:102530009405002038B50446FFF7F6FF0546B4F1D0
:10254000FF3F02D0044B1B781C44FFF7EDFF401BFC
:10255000A042FAD338BD00BF2C04002003689A695A
:1025600012F0020F01D000229A6203689A6912F0F9
:10257000010F03D19A6942F001029A61704710B4C9
:10258000019CC1F3090141EA02411943214321F0B1
:10259000004102685368640D04F4806444F07F7461
:1025A00044F4583444F47F7444F0030423EA0404EC
:1025B000214351605DF8044B70472DE9F04104461A
:1025C00003689E6916F010067ED00D4690461022D4
:1025D000DA61002637462368986910F0200F32D15F
:1025E0008FBBB5F1FF3FF6D0FFF79EFFA0EB0800D1
:1025F000A84201D8002DEED121684A6802F4804239
:1026000094F84230DBB2886910F4004F04D0203BCC
:1026100018BF012302B973B923689B6913F0200F17
:10262000D9D1FFF781FFA0EB08001928F4D946F0B3
:1026300020060127CFE74B6843F480434B60FFF748
:1026400073FF8046E8E70FB92022DA6146F00406FE
:1026500001252268936913F4807F05D046F00106B6
:102660004FF48071D161012513F4806F06D046F0DC
:10267000080622684FF48061D161012513F4007FC0
:1026800024D046F0020623684FF40072DA61012577
:102690002046FFF763FF2268536823F0FF7323F49B
:1026A0008B3323F4FF7323F001035360636C1E43E9
:1026B0006664202384F84130002384F8423084F893
:1026C00040302846BDE8F0810025C2E7002DF8D053
:1026D000DEE770B504460D46164623689B6913F085
:1026E000020F22D1324629462046FFF766FFF0B995
:1026F000B5F1FF3FF1D0FFF717FF801BA84201D8CB
:10270000002DEAD123689B6913F0020FE5D1636CB9
:1027100043F020036364202384F84130002384F8CD
:10272000423084F84030012000E0002070BD0120DC
:10273000FCE72DE9F04104460F4616461D46DDF83C
:10274000188023689B6937EA03030CBF0123002329
:10275000B34227D1424629462046FFF72EFF20BB31
:10276000B5F1FF3FEDD0FFF7DFFEA0EB0800A84278
:1027700001D8002DE5D123689B6937EA03030CBF1C
:1027800001230023B342DCD1636C43F02003636474
:10279000202384F84130002384F8423084F840300C
:1027A000012000E00020BDE8F0810120FBE70000EF
:1027B0002DE9F04182B0044690461D46089E099FCF
:1027C000194B00934FF08073EAB2FFF7D8FE3A46F8
:1027D00031462046FFF77DFFF8B9012D0ED1236861
:1027E0005FFA88F29A6200973346002280212046E1
:1027F000FFF79FFFA8B902B0BDE8F08123684FEA58
:1028000018229A623A4631462046FFF762FF30B9F5
:1028100023685FFA88F29A62E5E70120EBE701207E
:10282000E9E70120E7E700BF002000802DE9F04143
:1028300082B0044690461D46089E099F184B00939F
:102840000023EAB2FFF79BFE3A4631462046FFF7E7
:1028500040FFF8B9012D0ED123685FFA88F29A6221
:1028600000973346002240212046FFF762FFA8B9B7
:1028700002B0BDE8F08123684FEA18229A623A4616
:1028800031462046FFF725FF30B923685FFA88F20A
:102890009A62E5E70120EBE70120E9E70120E7E79D
:1028A0000020008070B504460D46164604E02368FB
:1028B0009B6913F0200F12D023689B6913F0200F3F
:1028C0001BD1324629462046FFF777FEB8B9FFF7FD
:1028D0002BFE801BA842EAD8002DEDD1E7E7636C00
:1028E00043F020036364202384F84130002384F8FC
:1028F000423084F84030012000E0002070BD01200B
:10290000FCE7704700285DD010B5044690F84130D0
:10291000002B46D0242384F841302268136823F02A
:10292000010313606368226823F0706313612268F7
:10293000936823F400439360E368012B36D0A368C7
:10294000226843F404439360E368022B34D0226886
:10295000536823F400635360226851681A4B0B4399
:1029600053602268D36823F40043D360236962690B
:102970001343A169226843EA0123D360E369216A12
:1029800022680B4313602268136843F0010313604D
:1029900000206064202384F84130206384F84200E2
:1029A00010BD80F84030FFF7ACFFB3E7A3682268A2
:1029B00043F400439360C7E72268536843F400631D
:1029C0005360C9E701207047008000027047A8B13A
:1029D00010B50446242380F841300268136823F0C0
:1029E00001031360FFF7F2FF0020606484F84100E8
:1029F000206384F8420084F8400010BD0120704735
:102A00002DE9F04F83B00D46BDF834A00E9F90F82D
:102A10004110C9B2202940F0BC8004469046994636
:102A20000C9BBAF1000F18BF002B16D090F8403065
:102A3000012B00F0B2804FF0010B80F840B0FFF79F
:102A400073FD0646009019235A464FF40041204674
:102A5000FFF76FFE30B101209CE04FF40073436438
:102A6000012097E0212384F84130402384F842304C
:102A7000002363640C9A6262A4F82AA0636301963F
:102A800000974B46424629462046FFF791FE70B913
:102A9000638D9BB2FF2B0FD9FF2222850023009369
:102AA0004FF0807329462046FFF769FD21E000239F
:102AB00084F8403058466DE0628D92B22285002342
:102AC00000934FF00073D2B229462046FFF757FD1E
:102AD0000FE0628D92B22285002300934FF00073C5
:102AE000D2B229462046FFF74AFD638D9BB2002BE8
:102AF00033D0324639462046FFF7EBFD00284ED151
:102B0000626A236812789A62636A01336362638D32
:102B10009BB2013B9BB26385238D013B9BB2238516
:102B2000628D92B2002AE0D0002BDED100963B46A7
:102B3000002280212046FFF7FCFD90BB638D9BB2F5
:102B4000FF2BC6D9FF222285002300934FF080730C
:102B500029462046FFF713FDC7E73246394620468F
:102B6000FFF7A0FEF8B923682022DA6121684B68DC
:102B700023F0FF7323F48B3323F4FF7323F001035B
:102B80004B6084F84120002384F8423084F84030C0
:102B900000E0022003B0BDE8F08F0220FAE7012038
:102BA000F8E70120F6E70120F4E700002DE9F04FF7
:102BB00083B00D46BDF834A00E9F90F84110C9B205
:102BC000202940F0BD800446904699460C9BBAF1FE
:102BD000000F18BF002B16D090F84030012B00F0EA
:102BE000B3804FF0010B80F840B0FFF79DFC064624
:102BF000009019235A464FF400412046FFF799FDF3
:102C000030B101209DE04FF400734364012098E04F
:102C1000222384F84130402384F842300023636447
:102C20000C9A6262A4F82AA06363019600974B464F
:102C3000424629462046FFF7F9FD70B9638D9BB2E5
:102C4000FF2B0FD901222285434B00934FF0807355
:102C500029462046FFF793FC21E0002384F840300A
:102C600058466EE0628D92B222853B4B00934FF046
:102C70000073D2B229462046FFF781FC0FE0628D37
:102C800092B22285002300934FF00073D2B22946FE
:102C90002046FFF774FC638D9BB2002B34D0009666
:102CA0003B46002204212046FFF743FD00284DD17A
:102CB00023685A6A636A1A70636A01336362228DF9
:102CC000013A92B22285638D9BB2013B9BB2638530
:102CD000638D9BB2002BDED0002ADCD100963B46F0
:102CE00080212046FFF725FD90BB638D9BB2FF2B13
:102CF000C5D901222285002300934FF08073294615
:102D00002046FFF73CFCC6E7324639462046FFF72F
:102D1000C9FDF8B923682022DA6121684B6823F0E5
:102D2000FF7323F48B3323F4FF7323F001034B6011
:102D300084F84120002384F8423084F8403000E0D9
:102D4000022003B0BDE8F08F0220FAE70120F8E787
:102D50000120F6E70120F4E70024008090F841000C
:102D60007047000038B310B5044690F83930EBB125
:102D7000022384F839302268136823F440336168F1
:102D80000B4313602268536B23F00703A1680B43C6
:102D900053632268116C094B0B40E1680B431364C9
:102DA0000020E063012384F8393010BD80F838300A
:102DB00004F092FCDCE70120704700BF00C0FFFF79
:102DC00010B40B68CBB90368194A1A404B688C6879
:102DD0002343CC6823430C6923434C6923438C6908
:102DE0002343CC6923430C6A2343496A0B431343AF
:102DF000036000205DF8044B7047036823F4F84338
:102E0000CA690C6A22434C6A224313430360436835
:102E1000074A1A404B688C682343CC6823430C69EB
:102E200023434C69234389690B4313434360E0E721
:102E30000080FFFF10B43ABB826802F070420B685A
:102E4000013B4C6804F1FF3C43EA0C138C6804F12D
:102E5000FF3C43EA0C23CC6804F1FF3C43EA0C330B
:102E60000C6904F1FF3C43EA0C434C6904F1FF3C5C
:102E700043EA0C538969013943EA016313438360D0
:102E800000205DF8044B70478368134A1A40CB68F2
:102E900003F1FF3C4B69013B1B0543EA0C33134331
:102EA0008360C26802F070420B68013B4C6804F119
:102EB000FF3C43EA0C138C6804F1FF3C43EA0C230B
:102EC0000C6904F1FF3C43EA0C438969013943EA88
:102ED00001631343C360D3E7FF0F0FFF10B403690F
:102EE000094A1A400B684C6823438C6804F1FF3C84
:102EF00043EA4C13C96843EA4123134303610020AA
:102F00005DF8044B704700BF0000C0FF4269034BEF
:102F1000134043EA410343610020704701C0FFFFB3
:102F20007047E0B138B50D46044690F82C308BB1AF
:102F3000022384F82C30214651F8040BFFF740FFA0
:102F4000626829462068FFF775FF012384F82C305A
:102F5000002038BD80F82D30FFF7E2FFE8E70120C0
:102F6000704738B5044690F82C30D8B2022805D006
:102F70000D46052818BF012801D0012038BD0223C5
:102F800084F82C302068FFF7A9FF2B68022B04D0AF
:102F9000012384F82C300020F0E7052384F82C303E
:102FA0000020EBE710B5044690F82C30D8B2022888
:102FB00005D094F82C30DBB2012B01D0012010BDDC
:102FC000022384F82C302068FFF7A0FF012384F847
:102FD0002C300020F3E70000F0B54D680468E3688A
:102FE000C3F30B431D444FEAC21C04EBC214D4F8D4
:102FF000883003F47043C4F888300B680468E668CE
:10300000C6F30B463344013304EBC21443EA0543D1
:10301000C4F88830CD680468E368C3F30A031D442C
:1030200004EBC21EDEF88C3003F47043CEF88C3013
:103030008B680468E668C6F30A0E7344013304EB38
:10304000C21443EA0543C4F88C30036803EBC2138F
:10305000D3F8944024F00704C3F89440036803EBCA
:10306000C2130C69C3F8944091F8317091F8326042
:103070008D69046804EBC21404F1840ED4F89C300A
:103080000024CEF8184091F8303043EA072343EA91
:103090000643066806EBC21E43EA0563CEF89C3081
:1030A0000EF1840E036803EBC213D3F8985025F099
:1030B000FF05C3F89850036803EBC2134D69C3F8CA
:1030C0009850036803EBC213D3F8A0602E4D35402F
:1030D000C3F8A0500D6A036803EBC213CE693543F1
:1030E000C3F8A050036803EBC213D3F8AC50C3F885
:1030F000AC40036803EBC2124B6AC2F8AC300B69F8
:103100006BB1012B39D0022B18BF042B37D0032B06
:1031100037D0072B01D0012502E0022500E004256D
:1031200002686244D2F8B04004F0E024C2F8B04033
:103130008A6A05FB02F44B680A689B1A05FB03F3D5
:1031400003330268624443EA0443C2F8B0300368C0
:103150006344D3F8B4400D4A2240C3F8B420036856
:103160006344CA6AC3F8B42003689C44DCF8843022
:1031700043F00103CCF88430F0BD0325D0E70225ED
:10318000CEE70225CCE700BFF8F8FFFF00F8FFFF0D
:10319000002872D038B5044690F8A130002B67D0D3
:1031A000022384F8A1302268936923F0704393616D
:1031B00021688A696368A0680343E0680343206963
:1031C000034313438B6121688A682D4B1A408A6040
:1031D00020688268A169656941EA05410A43826005
:1031E0002168CA681A40CA602068C268216AE56915
:1031F00041EA05410A43C26021680A691A400A612E
:1032000020680269A16A656A41EA05410A430261D0
:1032100021684A6913404B61E06A21684B69226B5F
:1032200042EA004213434B6194F8350094F836307B
:103230001B042168CA6A02F07F42CA622168CA6A16
:1032400043EA002394F8340003431343CB6222681B
:10325000536B43F0060353632268936943F0010301
:1032600093610020C4F8A400012384F8A13038BD84
:1032700080F8A03004F040FA92E70120704700BFC8
:1032800000F800F088B338B504460268D2F88430FC
:1032900023F00103C2F884300268D2F8043123F02D
:1032A0000103C2F804310268536A43F00203536217
:1032B000FFF73AF9054623689B6C13F0040F04D11D
:1032C000FFF732F9401B6428F5D92268936923F08F
:1032D00001039361204604F0B5FA0020C4F8A4006D
:1032E00084F8A10084F8A00038BD01207047704721
:1032F000704770B5044603689D6B5E6B15F0040F54
:1033000002D016F0040F12D115F0020F02D016F001
:10331000020F21D115F0010F02D016F0010F32D1AA
:1033200015F0080F02D016F0080F3DD170BD5A6B92
:1033300022F004025A6303680422DA63D0F8A4304E
:1033400043F00103C0F8A43080F8A120002380F8E6
:10335000A030FFF7CCFFD7E72268536B23F00203BE
:10336000536323680222DA63D4F8A4301343C4F809
:10337000A430042384F8A130002384F8A030204630
:10338000FFF7B5FFC6E72268536B23F001035363D1
:1033900022680123D36384F8A130002384F8A0308D
:1033A000204604F05BFABBE72268536B23F0080366
:1033B000536323680822DA63012384F8A1300023D1
:1033C00084F8A0302046FFF793FFAFE7F8B590F8F8
:1033D000A030012B2CD004460D461646012780F85C
:1033E000A070022380F8A1304FF0340C0CFB020CCB
:1033F0000CF1380C8E46BEE80F00ACE80F00BEE8BA
:103400000F00ACE80F00BEE80F00ACE80F00DEF8DC
:103410000030CCF80030324629462046FFF7DCFD6C
:1034200023685F6284F8A170002084F8A000F8BDD2
:103430000220FCE790F8A030012B1ED030B401240C
:1034400080F8A040022380F8A130036803EBC21388
:10345000D3F8905005F07F45C3F89050036803EB14
:10346000C213C3F8901003685C6280F8A140002387
:1034700080F8A030184630BC70470220704730B545
:1034800090F8A040012C3AD0012480F8A0400224FA
:1034900080F8A1404FF0000E12E00D68ECB244EA53
:1034A0000E6405F47F4C44EA0C0405F47F052C43BC
:1034B0000431056805EBC31CCCF8C4400EF1010EC5
:1034C000964514D2342404FB0304A46C062CE4D1E6
:1034D0000EEB0E140D685FFA85FC4CEA046405F4EB
:1034E0007F4C44EA0C0405F47F052C43E0E70123FC
:1034F00080F8A130002380F8A030184630BD0220AB
:10350000FCE790F8A030012B17D0012280F8A02012
:10351000022380F8A130036803EBC111D1F8843095
:1035200043F00203C1F8843003685A6280F8A12096
:10353000002380F8A030184670470220704790F8AA
:10354000A030012B17D0012280F8A020022380F8A0
:10355000A130036803EBC111D1F8843023F00203DA
:10356000C1F8843003685A6280F8A120002380F8F3
:10357000A030184670470220704790F8A030012B09
:1035800017D0012280F8A020022380F8A130036820
:1035900003EBC111D1F8843043F01003C1F884303B
:1035A00003685A6280F8A120002380F8A0301846F2
:1035B000704702207047000090F8A030012B11D016
:1035C000012280F8A020022380F8A13006498B69EF
:1035D00043F480338B6180F8A120002380F8A03071
:1035E000184670470220704700680140B0B5044695
:1035F00090F8A000012822D017461A46012584F829
:10360000A050022384F8A130342002FB00F000F126
:10361000380C20448163036E1944C1630764436E10
:103620003B44436404EB0C012046FFF7D5FC2368C0
:103630005D6284F8A150002084F8A000B0BD022093
:10364000FCE738B590F8A030012B19D004460125CD
:1036500080F8A050022380F8A130342302FB03F34A
:1036600003F138002344D96421182046FFF7B4FC45
:1036700023685D6284F8A150002084F8A00038BD62
:103680000220FCE738B590F8A030012B19D0044691
:10369000012580F8A050022380F8A130342302FBDA
:1036A00003F303F138002344D96521182046FFF7BE
:1036B00093FC23685D6284F8A150002084F8A00088
:1036C00038BD0220FCE7000090F8A030012B1AD092
:1036D00010B4012280F8A020022380F8A1300468F1
:1036E000636B23F001036363084B196401684B6B40
:1036F00013434B6380F8A120002380F8A0301846C4
:103700005DF8044B70470220704700BF006801401D
:1037100001290AD00123026B082A08D04268023A24
:10372000012A0CD943F0040070470923F3E74268EB
:10373000012A18BF032AF1D143F01003EEE743F04A
:10374000600070470E4B1B680E4AA2FB03231B0B45
:103750009B0001680A6822F480320A601A46013B25
:1037600032B10268126812F4803FF7D1002070472E
:10377000D0F8803043F04003C0F880300320704719
:10378000940400201BECCB9570470000002800F04B
:10379000F38038B5044690F87D30002B00F0BA80F5
:1037A000022384F87D302046FFF7CCFFE368012B2D
:1037B00000F0B580022B40F0B4802022A368022BD9
:1037C00000F0B980032B00F0B180012B00F0AB803A
:1037D0000025236869486A498B4218BF834240F03C
:1037E000AD80684BC3F80028E36943B3236863499D
:1037F000634A934218BF8B4200F0A48000202368E4
:103800006149624A934218BF8B4200F0A08000EBEE
:1038100080004000E3695B02B0FBF3F05C4BA3FB6C
:103820000023DB08236203EB8302A0EB420008289D
:1038300001D901332362236B042B00F08D80636870
:10384000022B18BF002B40F08E80E36B012B00F0A1
:1038500087804FF4007C21680B684E4A1A400A604A
:10386000226811686368206B0343606B0343A06B9D
:10387000034343EA0C032B43606A03432069034379
:1038800060690343206A43EA00530B4313602268D4
:103890005168414B0B40536021684A68A369A06A94
:1038A0000343E06A034313434B60226891683B4B38
:1038B0000B40936020688268236C013B216D0B43B1
:1038C000A16C0B43E16C0B43616C013943EA0123AA
:1038D000134383602268D36823F47D6323F00F03CE
:1038E0001B041B0CD3602068C268636DA16D0B4381
:1038F000216E43EA0143E16D013943EA0123134399
:10390000C3600020C4F88000012384F87D3084F86F
:103910007C0038BD80F87C30FFF736FF40E710228E
:103920004CE700224AE74FF4806552E742F001027B
:103930004FF400654DE74FF400654AE7114BC3F8BB
:10394000002C51E74FF40020FEF72EF957E74FF413
:103950008010FEF729F95AE7236A5B0823626EE7B5
:103960004FF0000C77E7E36B012B02D04FF0000C17
:1039700071E74FF4007C6EE7012070470458014066
:103980002458014000500140045C0140245C014087
:10399000CDCCCCCC10C005FFF01FFFFF0080F8FF9E
:1039A0007047E8B138B50446022380F87D300368DB
:1039B00000251D6103684FF0FF329A61FFF7C2FED8
:1039C0002268536843F0080353602046FFF7E8FF7E
:1039D000C4F8805084F87D5084F87C50284638BD67
:1039E0000120704770B5002A18BF00294CD004464A
:1039F000134694F87D50EDB2012D48D194F87C2007
:103A0000012A46D0012284F87C206166A4F868303F
:103A1000A4F86A300023C4F88030222284F87D2084
:103A2000226F1D491164226F1C49D163226F1C490A
:103A3000D164226F13652168B4F86830626E1C315E
:103A4000206FFEF79FFB064618B1002384F87C30F8
:103A50001BE000212046FFF75BFE22681369034349
:103A600013612268136843F40033136023681A68F3
:103A700012F4803F03D11A6842F480321A600023A6
:103A800084F87C30354600E00125284670BD0225CB
:103A9000FBE70225F9E700BFDF3A0008A53A000876
:103AA000E93A000810B5846BC369B3F5807F12D082
:103AB0002268136823F4003313600021A4F86A100D
:103AC0002046FFF725FE2268136923EA00031361ED
:103AD000012384F87D30204601F0C8FA10BD08B5F6
:103AE000806B01F0C7FA08BD10B5846BD4F8803044
:103AF00043F08003C4F88030E36E5B6D012B07D088
:103B0000236F5B6D012B03D0204601F0B9FA10BD85
:103B10002268136823F4003313602046FFF712FE77
:103B2000012384F87D300023A4F86A30ECE790F894
:103B30007D0070477047002070477047014B187830
:103B4000704700BF9C05002008B5FFF7F7FF00B1E4
:103B500008BD01F0C7FC024B01221A70F8E700BF54
:103B60009C05002008B5C82001F0EEFCFFF7ECFF33
:103B700008BD70B582B0064600248DF80740FFF7F7
:103B8000E3FF254601E00134E4B285F00103022C95
:103B90008CBF002303F0010363B1A821F0B201F050
:103BA000BDFC8DF807009DF80730DBB2512BEAD140
:103BB0000125E8E79DF8070002B070BD00B583B0AD
:103BC00000238DF807300221C0B201F0A7FC8DF868
:103BD00007009DF8073003F00F038DF807309DF8BC
:103BE0000730DBB2052B02D900238DF807309DF892
:103BF0000720044B5A7000229A709DF8070003B00A
:103C00005DF804FB9C0500202DE9F04782B01546C5
:103C100000238DF807304F4A93785278934280F012
:103C200096800F46092B06D8DFE803F0530B131BD1
:103C3000232B333B434B4FF00008C146C24641465D
:103C40004EE04FF00B084FF00C094FF0090A0A2123
:103C500046E04FF011084FF012094FF00F0A102103
:103C60003EE04FF017084FF018094FF0150A1621E3
:103C700036E04FF01D084FF01E094FF01B0A1C21C3
:103C80002EE04FF023084FF024094FF0210A2221A3
:103C900026E04FF029084FF02A094FF0270A282183
:103CA0001EE04FF02F084FF030094FF02D0A2E2163
:103CB00016E04FF035084FF036094FF0330A342143
:103CC0000EE04FF03B084FF03C094FF0390A3A2123
:103CD00006E04FF005084FF006094FF0030A0421F3
:103CE000C4B2204601F01AFC8DF807009DF8073099
:103CF000194E33805146204601F010FC8DF8070024
:103D00009DF807301B0203F47063328813439BB2A3
:103D100033803B804946204601F000FC8DF80700C7
:103D20009DF8073033804146204601F0F7FB8DF8BF
:103D300007009DF807301B0203F4706332881343B9
:103D40009BB233802B80034A93780133937002B087
:103D5000BDE8F0879C0500209805002008B50122E9
:103D6000A421C0B201F0C6FB08BD08B50022A42101
:103D7000C0B201F0BFFB08BD08B5FFF7F6FF08BDF4
:103D800010B582B00C4600238DF807300121C0B277
:103D900001F0C4FB8DF807009DF80730236002B0E6
:103DA00010BD00002DE9F04182B01D4600238DF8C2
:103DB0000730334B5B788B425ED91646092906D80B
:103DC000DFE801F036090E13181D22272C310027D9
:103DD000B846394630E00E274FF00D0809212BE098
:103DE00014274FF013080F2126E01A274FF0190867
:103DF000152121E020274FF01F081B211CE026275A
:103E00004FF02508212117E02C274FF02B08272100
:103E100012E032274FF031082D210DE038274FF006
:103E20003708332108E03E274FF03D08392103E0F1
:103E300008274FF007080321C4B2204601F06EFBAB
:103E40008DF807009DF807309B09089A13604146DA
:103E5000204601F063FB8DF807009DF807303360C2
:103E60003946204601F05AFB8DF807009DF80730CF
:103E70001B0903F004032B6002B0BDE8F08100BF12
:103E80009C05002008B501F0EFFA002008BD0000F5
:103E900038B50346134A106880B101290FD0DDB24E
:103EA00000224FF484612846FFF7ECFF044600220D
:103EB00040F222412846FFF7E5FF204438BDDDB23D
:103EC0004FF400724FF484612846FFF7DBFF04468D
:103ED0004FF4007240F222412846FFF7D3FF2044FE
:103EE000ECE700BFA405002008B50021FFF7D0FFD4
:103EF00008BD08B50021FFF7CBFF08BD38B5054662
:103F00000121FFF7C5FF044601220221E8B2FFF7B5
:103F1000B9FF204438BD000070B51D4B1C680CB9BA
:103F2000204670BD05460E460121FFF7B1FF04464D
:103F3000022EF5D0EDB24FF400724FF484612846A2
:103F4000FFF7A0FF04444FF4007240F222412846DC
:103F5000FFF798FF044400222D212846FFF792FF27
:103F6000044400222E212846FFF78CFF044400223F
:103F700005212846FFF786FF044400221146284603
:103F8000FFF780FF0444024B00221A60C8E700BF1D
:103F9000A40500202DE9F04106460C46642925D8E9
:103FA000C1EB8113464A82FB0312DF17C7EB62178E
:103FB000FFB2444B1D6845B13E2F19D8002C3AD1B1
:103FC00001213046FFF764FF05463F4B1B68002B7D
:103FD00073D0632C51D8C4EB04142401384B83FBF9
:103FE0000423E417C4EB6314E4B247E06427E0E77A
:103FF00000213046FFF74CFF0546F7B240F27F1232
:104000001C213846FFF73EFF054440F27F121D2178
:104010003846FFF737FF054440F27F122621384625
:10402000FFF730FF054440F27F1227213846FFF7A3
:1040300029FF0544C9E700213046FFF729FF05465F
:104040005FFA86F847F4A0773A461C214046FFF70E
:1040500019FF05443A461D214046FFF713FF05446A
:104060003A4626214046FFF70DFF05443A462721F0
:104070004046FFF707FF0544A7E7EF24F6B244F4F4
:10408000807422464FF480613046FFF7FBFE054402
:10409000224640F201413046FFF7F4FE0544224635
:1040A00040F204413046FFF7EDFE0544224640F25F
:1040B00005413046FFF7E6FE05442846BDE8F0819D
:1040C0001F85EB51A4050020A00500202DE9F04735
:1040D000814692461D465FFA81F801F47F4601F061
:1040E000B9F95FFA89F403224FF481712046FFF792
:1040F000C9FE0746002240F617012046FFF7C2FE20
:10410000074400224FF481712046FFF7BBFE0744AD
:104110006C2239212046FFF7B5FE07440322012116
:104120002046FFF7AFFE0744322001F0D7F9B8F17F
:10413000000F00F09B80C94B01221A60B8F1020FFA
:104140004CD0B8F1030F6DD0904523D040F203322C
:1041500005212046FFF796FE0744012240F2016147
:104160002046FFF78FFE0744012240F202612046FD
:10417000FFF788FE0744002240F204612046FFF763
:1041800081FE0744002240F205612046FFF77AFED7
:1041900007446EE040F60C4205212046FFF772FE10
:1041A0000744002240F201612046FFF76BFE0744FE
:1041B000002240F202612046FFF764FE074402221B
:1041C00040F204612046FFF75DFE0744022240F200
:1041D00005612046FFF756FE07444AE040F20332ED
:1041E00005212046FFF74EFE0744012240F20161FF
:1041F0002046FFF747FE0744012240F202612046B5
:10420000FFF740FE0744002240F204612046FFF71A
:1042100039FE0744002240F205612046FFF732FED6
:10422000074426E040F60F7205212046FFF72AFEDC
:104230000744012240F201612046FFF723FE0744B4
:10424000012240F202612046FFF71CFE07440222D1
:1042500040F204612046FFF715FE0744022240F2B7
:1042600005612046FFF70EFE074402E07B4B00226B
:104270001A60002E60D07A4B01221A60B6F5007FDA
:1042800004D0B6F5407F2CD0013758E04FF443629C
:1042900004212046FFF7F6FD0744DB224FF48A6134
:1042A0002046FFF7EFFD07444FF4C04202212046AD
:1042B000FFF7E8FD074402224FF4C1612046FFF7F3
:1042C000E1FD0744022240F209612046FFF7DAFDD2
:1042D00007440E224FF4E0612046FFF7D3FD074468
:1042E0002DE040F2033204212046FFF7CBFD0744C6
:1042F000DB224FF488612046FFF7C4FD074446F2F5
:10430000503202212046FFF7BDFD0744022240F251
:1043100006612046FFF7B6FD0744022240F207611E
:104320002046FFF7AFFD07440D224FF4E061204621
:10433000FFF7A8FD074402E0494B00221A6045F24E
:1043400022639D427AD04ED842F611339D426DD001
:10435000B5F57A5F07D133224FF404712046FFF799
:1043600091FD074409E0B5F5FA5F6FD103224FF4E0
:1043700004712046FFF786FD074444F210024FF413
:1043800040712046FFF77EFD0744002240F20231D3
:104390002046FFF777FD07440A224FF402712046BA
:1043A000FFF770FD074401224FF400712046FFF72C
:1043B00069FDC519B8F1000F56D18EB1B6F5007F71
:1043C00018BFB6F5807F00F0E080B6F5806F18BFAB
:1043D000B6F5407F00F0F08051464846FFF7DAFD21
:1043E0002846BDE8F0874BF680339D4216D01D4B22
:1043F0009D4207D1A3224FF404712046FFF742FDEE
:104400000744BAE74AF644439D421FD173224FF452
:1044100004712046FFF736FD0744AEE783224FF4D0
:1044200004712046FFF72EFD0744A6E713224FF440
:1044300004712046FFF726FD07449EE743224FF410
:1044400004712046FFF71EFD074496E783224FF4D0
:1044500004712046FFF716FD07448EE7A4050020EF
:10446000A0050020007701004FF440720321204690
:10447000FFF708FD0544002222212046FFF702FD38
:104480000544002223212046FFF7FCFC05444FF49D
:10449000407236212046FFF7F5FC054443F2030243
:1044A00001212046FFF7EEFC05440522512120465C
:1044B000FFF7E8FC054443F2033201212046FFF7F1
:1044C000E1FC0544222260212046FFF7DBFC054485
:1044D00049F625724C212046FFF7D4FC05440F20F5
:1044E00000F0FCFF01222D212046FFF7CBFC054404
:1044F00001222E212046FFF7C5FC05444FF44C72E3
:1045000003212046FFF7BEFC0544332254212046F8
:10451000FFF7B8FC0544FA2000F0E0FFEE2260212E
:104520002046FFF7AFFC0544C0224FF4C26120468D
:10453000FFF7A8FC0544C02240F211612046FFF7B6
:10454000A1FC054400224FF484612046FFF79AFC49
:104550000544C02240F212612046FFF793FC054457
:10456000C02240F213612046FFF78CFC0544002274
:1045700040F222412046FFF785FC0544514648465B
:10458000FFF708FD43F2033817E748F01302012153
:104590002046FFF777FC054402224FF4C461204611
:1045A000FFF770FC05444FF4605240F21141204681
:1045B000FFF768FC05440FE748F00302012120469D
:1045C000FFF760FC05440B2218212046FFF75AFC38
:1045D00005440B221A212046FFF754FC05442522EE
:1045E00029212046FFF74EFC054425222A2120469A
:1045F000FFF748FC0544112228212046FFF742FC22
:1046000005444FF4C0524FF482612046FFF73AFC54
:104610000544E1E638B502294DD0032970D00129BF
:1046200024D0C4B240F2033205212046FFF72AFC11
:104630000546012240F201612046FFF723FC0544B4
:10464000012240F202612046FFF71CFC05440022D3
:1046500040F204612046FFF715FC0544002240F2B9
:1046600005612046FFF70EFC284423E0C4B240F663
:104670000C4205212046FFF705FC0546002240F2CA
:1046800001612046FFF7FEFB0544002240F2026173
:104690002046FFF7F7FB0544022240F20461204662
:1046A000FFF7F0FB0544022240F205612046FFF7C8
:1046B000E9FB284438BDC4B240F20332052120464C
:1046C000FFF7E0FB0546012240F201612046FFF7BB
:1046D000D9FB0544012240F202612046FFF7D2FBDC
:1046E0000544002240F204612046FFF7CBFB05445D
:1046F000002240F205612046FFF7C4FB2844D9E7B9
:10470000C4B240F60F7205212046FFF7BBFB0546F9
:10471000012240F201612046FFF7B4FB054401226B
:1047200040F202612046FFF7ADFB0544022240F251
:1047300004612046FFF7A6FB0544022240F2056112
:104740002046FFF79FFB2844B4E7000008B545F278
:10475000226399423FD017D842F61133994233D0A1
:10476000B1F57A5F06D133224FF40471C0B2FFF77E
:1047700089FB08E0B1F5FA5F34D103224FF40471EC
:10478000C0B2FFF77FFB08BD4BF68033994214D0CF
:10479000184B994206D1A3224FF40471C0B2FFF71F
:1047A00071FBF0E74AF6444399421BD173224FF460
:1047B0000471C0B2FFF766FBE5E783224FF4047192
:1047C000C0B2FFF75FFBDEE713224FF40471C0B203
:1047D000FFF758FBD7E743224FF40471C0B2FFF74D
:1047E00051FBD0E783224FF40471C0B2FFF74AFBBC
:1047F000C9E700BF0077010008B500221146C0B22A
:10480000FFF740FB0023024A1360024A136008BD11
:10481000A4050020A005002008B500F023FE08BD77
:1048200010B5044600F016FE0021E0B200F038FE9C
:1048300010BD000010B50D4B18800D4B19800D4CAC
:10484000236870209847636870209847512801D0EA
:10485000032010BD084A14607020084A1070084AEE
:1048600008211170E36898470020F2E7DA0500207C
:10487000DC05002034040020D4050020A805002019
:10488000D805002010B582B004460023019301A989
:104890001E4B1878FFF774FA019B1C2B12D81C2BA7
:1048A00031D8DFE803F0193030303030303030307C
:1048B0003030303030301C30303020303030243028
:1048C00030302800402B1AD0492B03D10623A36295
:1048D000002019E0012017E00020A06214E001236D
:1048E000A362002010E00223A36200200CE0032357
:1048F000A362002008E00423A362002004E0052353
:10490000A362002000E0012002B010BDA805002035
:1049100070B592B005460023059304930393694B49
:104920001B681B69684A107898472870002800F0B7
:10493000C68000241FE012AA02EB440232F8241CB5
:1049400022F80C1C32F8301C22F8181C27E09BB20D
:104950005B1A9BB256E092B2921B92B25FE005EBFB
:1049600044035980231D05EB43039E807BE02B19F4
:104970000122DA7601342B78A34240F29D80514B1C
:104980001B685B6906AA02EB440209A901EB44011A
:104990004D48007898474D4B1B78012BCBD013F036
:1049A000020F08D012AA02EB440131F8242CC2F500
:1049B000805221F80C2C13F0040F08D012AA02EB3D
:1049C000440131F8302CC2F5805221F8182C13F034
:1049D000080F0AD012AB03EB440333F8242C23F85E
:1049E000182C33F8302C23F80C2C12AB03EB4403B7
:1049F00033F80C1C364B53F824309942A7D99BB29C
:104A0000CB1A9BB212AA02EB440232F8186C314A5C
:104A100052F8242096429ED992B2B21A92B213440E
:104A2000052B05DD2A4B43F824102A4B43F824605C
:104A3000254B1878702892D0254B53F82420264B0C
:104A40001B8802FB03F31B0B05EB44025380214B35
:104A500053F82420214B1B8802FB03F31B0B221D60
:104A600005EB4202938003AB009304AB05AA2146F9
:104A7000FFF798F92B19059A9A75049A83F8202064
:104A8000039B032B3FF676AF01A252F823F000BF41
:104A90006F490008A14A0008A94A0008B14A000865
:104AA0002B190222DA7665E72B190322DA7661E701
:104AB0002B190022DA765DE72846FFF7E3FE12B0F5
:104AC00070BD00BFD4050020A8050020D805002037
:104AD000AC050020C0050020DA050020DC05002020
:104AE0002DE9F04383B081464FF00008CDF80480F3
:104AF000204C0126266010276760A660C4F80C8051
:104B00001D4D4FF6FF7221462846FEF72AFA304621
:104B1000FDF710FD022323606760A660C4F80C80D7
:104B20004FF6FF7221462846FEF71BFA0323236047
:104B300067600823A360C4F80C804FF6FF7221461B
:104B40002846FEF70EFA4FF40873019304232360FE
:104B50006760A660019BE3604FF6FF72214628461E
:104B6000FEF7FFF949462846FEF71CFA03B0BDE8F8
:104B7000F08300BFE00500206C06002070B58EB009
:104B80000646534B9A6B42F001029A639A6B02F00D
:104B900001020192019A1A6B42F480021A631A6BA5
:104BA00002F480020292029A1A6B42F004021A6323
:104BB0001A6B02F004020392039A1A6B42F0080285
:104BC0001A631A6B02F008020492049A1A6B42F0FC
:104BD00010021A631A6B02F010020592059A1A6B02
:104BE00042F020021A631A6B02F020020692069A23
:104BF0001A6B42F040021A631A6B02F040020792ED
:104C0000079A1A6B42F080021A631B6B03F0800351
:104C10000893089B02230A9301220B920C930C2306
:104C20000D930823099309A92A48FDF791F84CF23E
:104C30000B73099309A92848FDF78AF84FF6837387
:104C4000099309A92548FDF783F84FF63F03099317
:104C500009A92348FDF77CF848F23313099309A901
:104C60002048FDF775F82823099309A91E48FDF788
:104C70006FF81E4C002565608023A3604FF400731D
:104C8000E3604FF4806323614FF4805363614FF41A
:104C90008043A361E5614FF400332362656203231F
:104CA000A362E5622563124B23603463A66320464A
:104CB000FDF736FA2046FDF7CBF92A4605213820C4
:104CC000FDF79AFB3820FDF7CDFB0EB070BD00BF9D
:104CD0000038024000080240000C02400010024070
:104CE0000014024000180240001C02400C06002084
:104CF0001064024038B51B4C1B4B23601B4D022334
:104D00002B60072169600422AA60E9602B616B6156
:104D1000AB6100216160A160E26010232361402348
:104D200063614FF48073A361E1614FF40063236218
:104D30004FF480536362A1622046FFF71FFF2946AC
:104D40002046FEF7EEF848B1094B01221A7040F2F6
:104D50000360FFF7C5FE064B187838BD044B0022F0
:104D60001A70F4E76C060020400100A0F005002056
:104D70008C04002008B50548054B0360054A536ABA
:104D800023F480335362FEF70CFE08BDA406002016
:104D9000245C0140005C01402DE9F04F83B0364DAA
:104DA000364B2B60364F7B6823F480337B60019257
:104DB000EA61686000266E612E634FF0800BC5F8D3
:104DC00034B0AE634FF4007AC5F83CA0AE604FF447
:104DD00000532B614FF00108C5F818804FF04009CF
:104DE000C5F84090202068644FF48030A864EE64D9
:104DF0004FF4802028656E65AE650420E86500915B
:104E000029662846FEF7C2FC1E4C1F4B23607B6AB6
:104E100023F480337B62019BE3610323636066615B
:104E20002663C4F834B0A663C4F83CA0C4F8088074
:104E30002661C4F81880C4F84090202363644FF4BE
:104E40008033A364E6644FF4802323656665A6651A
:104E50000423E365009A22662046FEF797FC2A6841
:104E6000136843F4803313602268136843F480337B
:104E7000136003B0BDE8F08F28070020045C0140F8
:104E8000005C0140A4060020245C01407047000043
:104E90002DE9F0478AB082464F4C636C43F400031F
:104EA0006364636C03F400030093009B236B43F47F
:104EB00080732363236B03F480730193019B236B43
:104EC00043F480732363236B03F480730293029B88
:104ED000236B43F480732363236B03F48073039386
:104EE000039B802305934FF00209CDF818904FF0F3
:104EF0000008CDF81C80032708970A260996374D2D
:104F000005A92846FCF724FF20230593CDF8189027
:104F1000CDF81C800897099605A92846FCF718FFCC
:104F200040230593CDF81890CDF81C80089709967A
:104F300005A92846FCF70CFF10230593CDF818901F
:104F4000CDF81C800897099605A92846FCF700FFB4
:104F5000236B43F480032363236B03F480030493E4
:104F6000049BDAF800201E4B9A420AD00022052149
:104F70003C20FDF741FA3C20FDF774FA0AB0BDE889
:104F8000F087184C4FF0C06363604023A360C4F8FF
:104F90000C804FF4806222614FF4006262614FF432
:104FA0000052A2614FF48072E2614FF4003222623B
:104FB00004226262A762C4F82C80C4F830800A4BD5
:104FC0002360CAF86C40C4F838A02046FDF7A8F862
:104FD0002046FDF73DF8C9E70038024000200240B6
:104FE000045C01400C0800207064024010B5A2B0BF
:104FF0000C4601A8FCF726FD42F6113245F2226369
:105000009C4218BF944203D04AF644439C4211D1BB
:105010004FF4801301934FF48003119340F2AD13CA
:1050200002930223049313230A9301A8FCF734FA92
:1050300022B010BD4FF4801301934FF480031193FD
:105040004FF4AC7302930723049301230A9301A83E
:10505000FCF722FAECE7000008B58AB201460248E4
:10506000FEF7C0FC002008BDA406002008B503F030
:1050700089FA08BD08B503F061FA08BD7047000061
:1050800038B50E48FEF753FD05460D48FEF74FFDB7
:105090000446122D18BF022D03D0033DEDB2012DA1
:1050A00001D8FFF7F3FE222C18BF022C03D0033CDB
:1050B000E4B2012C01D8FFF7E1FF38BD280700203A
:1050C000A4060020F0B58BB005463B4C636C43F45E
:1050D00000036364636C03F400030193019B236B7F
:1050E00043F040032363236B03F040030293029BCE
:1050F0004FF48063059302260696002707970896CB
:105100000A23099305A92D48FCF722FE236B43F0DF
:1051100080032363236B03F080030393039B4FF40B
:105120000043059306970797089605A92448FCF7BE
:105130000FFE236B43F480032363236B03F480038C
:105140000493049B2A681F4B9A4211D00022062127
:105150004620FDF751F94620FDF784F9002206218B
:105160002820FDF749F92820FDF77CF90BB0F0BDA8
:10517000154C6760A760E7604FF4806222614FF4CE
:10518000006262614FF40052A2614FF48072E261EA
:105190004FF40032226267620322A262E762276351
:1051A0000A4B23602C67A5632046FCF7B9FF204615
:1051B000FCF74EFFCAE700BF00380240001802406B
:1051C000001C0240245C0140AC070020B86402408F
:1051D000B0F5407F18BFB0F5007F01D001207047C7
:1051E000F8B504460E461546FFF7C4FD1B4F0022D6
:1051F00029463846FFF7FAFE194B3B603846FEF762
:1052000096FC88B1B4F5007F17D005212A4601200D
:10521000FFF7C2FD134B9B683420984748F6941360
:1052200098420CD00120F8BD00213846FFF730FE2F
:1052300000213846FFF746FFE4E70A21E6E7094F79
:10524000FB6A34209847084B1F603F682B46324664
:1052500021463420B8470020E5E700BFA40600201F
:10526000245C01405C040020A006002070B58AB0D8
:10527000444B834243D0444C236B43F002032363EB
:10528000236B03F002030393039B4FF48073059396
:1052900012230693002507950223089304230993FC
:1052A0003A4E05A93046FCF753FD4FF400730593C1
:1052B00005A93046FCF74CFD236C43F4001323642E
:1052C000236C03F400130493049B236A43F4001338
:1052D0002362236A23F4001323622A4605211F2038
:1052E000FDF78AF81F20FDF7BDF82A46052120208A
:1052F000FDF782F82020FDF7B5F80AB070BD224C0A
:10530000236B43F080032363236B03F0800301933B
:10531000019B802305931223069300250795022302
:105320000893042309931A4E05A93046FCF710FD93
:105330004FF48073059305A93046FCF709FD236CF3
:1053400043F400032364236C03F400030293029BE1
:10535000236A43F400032362236A23F400032362D5
:105360002A4605214820FDF747F84820FDF77AF83E
:105370002A4605214920FDF73FF84920FDF772F83C
:10538000BBE700BF6C080020003802400004024068
:10539000001C024010B50446FDF7E0FCA0B90C4B20
:1053A0009C4212D00B4B23600B4B63600023A36025
:1053B0000122E26023616361E36123622046FFF71B
:1053C00055FF2046FDF79EFA10BD044B2360EBE726
:1053D0006C0800200054004032279140005C0040DF
:1053E00010B50446FDF7F3FA2046FFF7D3FF10BDD2
:1053F00070B584B005460C464FF47A710291BDF841
:1054000024100191089900912146FDF7F9FA06460A
:1054100010B9304604B070BD21462846FFF7E0FFC2
:10542000F7E770B584B005460C464FF47A710291E7
:10543000BDF824100191089900912146FDF7B6FBB3
:10544000064610B9304604B070BD21462846FFF725
:10545000C7FFF7E708B50248FFF79CFF08BD00BF8C
:105460006C0800207047000000B585B0ADF80E2034
:1054700093B21A0AADF80E201B021BB21343ADF80B
:105480000E30022301930DF10E0200920A460146EE
:105490000248FFF7ADFF05B05DF804FB6C08002083
:1054A00000B585B00A460023ADF80E300223019303
:1054B0000DF10E01009101460748FFF7B2FFBDF85C
:1054C0000E30180200B240EA132080B2ADF80E0090
:1054D00005B05DF804FB00BF6C08002008B5FDF7BF
:1054E00029F808BD08B50248FFF754FF08BD00BF02
:1054F0006C08002000B585B08DF80F2001230193C2
:105500000DF10F0200920A4601460348FFF770FFB3
:1055100005B05DF804FB00BF6C08002000B585B045
:105520000A4600238DF80F30012301930DF10F017E
:10553000009101460348FFF774FF9DF80F0005B086
:105540005DF804FB6C08002008B5FCF7F3FF08BD0C
:10555000064B1A681368B3FA83F35B09036013B947
:10556000D368186870470020704700BFC00800204B
:1055700008B54160006191420CD8D21A83699A4201
:1055800001D3012008BD011D0B4B186801F00DFC73
:105590000020F7E79A422CBF00220122994238BF2F
:1055A00000220AB10120EDE7011D044B186801F04B
:1055B000FCFB0020E6E700BFC4080020C008002074
:1055C00038B501F07FFC0D4B1B6813B101F0A0FC56
:1055D00038BD0B4D284601F0CFFB0A4C204601F0A8
:1055E000CBFB094B1D60094B1C6000220C210A20DB
:1055F00001F056F9014B1860E8E700BFF4080020FD
:10560000C8080020DC080020C0080020C4080020D2
:105610002DE9F041079F51B94FF0500372B683F363
:105620001188BFF36F8FBFF34F8F62B6FEE7064658
:1056300015461C4688465FB1FFF7C2FF3E60C7F8BB
:105640001880FD613C62069B7B62381D01F09FFB68
:10565000BDE8F08100B583B0FFF7B2FF0E4B1B68C9
:105660005BB10E4B01930223009300234FF4807231
:105670000B490C4800F0D8FA50B94FF0500372B6FD
:1056800083F31188BFF36F8FBFF34F8F62B6FEE7CE
:1056900003B05DF804FB00BFF4080020F808002008
:1056A0004C470108B55900082DE9F04182B0044685
:1056B000884615461E46282001F08CFD074640B15D
:1056C0000190089B009333462A4641462046FFF747
:1056D0009FFF384602B0BDE8F0810000B8B19C469B
:1056E00003461948006868B300B585B0019102927D
:1056F000039305291EDC00F085FD022812D000234B
:105700001A4601A91048006801F0F0F817E04FF0C0
:10571000500372B683F31188BFF36F8FBFF34F8FBF
:1057200062B6FEE70023069A01A90748006801F067
:10573000DDF804E00023624601A901F0A3F905B0F9
:105740005DF804FB00207047F408002070B582B0BB
:105750001B4B1B681A6862B3DB681E68DC68251D7A
:10576000284601F03BFB636A20469847E369012B1A
:10577000EED1A36933449E4207D263602461294677
:105780000F4B186801F011FBE2E7002100910B4676
:1057900032462046FFF7A2FF0028D9D14FF0500330
:1057A00072B683F31188BFF36F8FBFF34F8F62B66A
:1057B000FEE7044A106802490860136002B070BD39
:1057C000C0080020C408002038B5054600F0ACFA37
:1057D0000446074B1B68834205D800232B60044B0B
:1057E0001C60204638BDFFF7B1FF01232B60F6E7B0
:1057F000F008002070B582B006460D4615490968CC
:10580000C968CC68201D01F0E9FAE169012904D0DA
:10581000636A2046984702B070BDA16933462A46A4
:1058200031442046FFF7A4FE0028F1D0002100916A
:105830000B4632462046FFF751FF0028E8D14FF0D3
:10584000500372B683F31188BFF36F8FBFF34F8F8E
:1058500062B6FEE7C008002070B582B006460C466E
:1058600000F05AFA01A8FFF7AFFF019B33BB0546D2
:10587000B04228BF002C1AD02CB1124B1B681C68F8
:10588000B4FA84F464092246711B0F4B186801F0C6
:105890004AFA00F0E5FA98B94FF0E0234FF0805251
:1058A000C3F8042DBFF34F8FBFF36F8F08E000F0F4
:1058B000D7FA29463046FFF79DFF01E000F0D0FA05
:1058C00002B070BDC4080020F408002010B586B0F6
:1058D00000231A4603A93648006801F041F9002860
:1058E00064D0039B002BF3DB059C636913B1201D7F
:1058F00001F074FA02A8FFF767FF039B092BE7D8B2
:1059000001A252F823F000BF3159000831590008B4
:1059100031590008D15800087B590008A5590008E2
:105920003159000831590008D15800087B59000846
:10593000049BA169024619442046FFF719FE00287E
:10594000C6D0636A20469847E369012BC0D1A2699B
:10595000002100910B46049802442046FFF7BEFE4A
:105960000028B5D14FF0500372B683F31188BFF30E
:105970006F8FBFF34F8F62B6FEE70499A16131B11B
:105980000346024601442046FFF7F2FDA0E74FF030
:10599000500372B683F31188BFF36F8FBFF34F8F3D
:1059A00062B6FEE7204601F091FC91E706B010BD1B
:1059B000F408002000B583B001A8FFF7C9FD0199E4
:1059C000FFF74AFFFFF782FFF6E70000074B1B686F
:1059D000012BFBD94FF0E0234FF08052C3F8042D88
:1059E000BFF34F8FBFF36F8FF0E700BF08090020B0
:1059F000084B1B681B6823B9074B4FF0FF321A6036
:105A00007047044B1B68DB68DB685A68024B1A60FE
:105A1000704700BF00090020E80900202DE9F04789
:105A200007469846089DDDF824900A9C266B6FF087
:105A30004043134406EB830626F007064FF0000CA4
:105A4000BCF10F0F0BD811F80C2004EB0C0383F8FA
:105A5000342011F80C3013B10CF1010CF0E70023E5
:105A600084F84330072D00D90725E56265644FF0BF
:105A7000000AC4F848A0201D01F089F904F11800BB
:105A800001F085F92461C5F10805A5616462C4F8D7
:105A90004CA084F850A042463946304601F0E8F95F
:105AA0002060B9F1000F01D0C9F80040BDE8F087CF
:105AB00038B5002407E004EB840293000B48184437
:105AC00001F05AF90134072CF5D9094D284601F0A7
:105AD00053F9084C204601F04FF9074801F04CF902
